:020000040007F3
:1080000048850020DD830700E5830700E78307003C
:10801000E9830700EB830700ED8307000000000001
:10802000000000000000000000000000C9830700FD
:10803000F183070000000000F3830700F5830700C9
:10804000F7830700F7830700F7830700F78307002C
:10805000F7830700F7830700F7830700F78307001C
:10806000F7830700F7830700F7830700F78307000C
:10807000F7830700F7830700F7830700F7830700FC
:10808000D5880700F7830700F7830700F783070009
:10809000F7830700F7830700B5850700F78307001C
:1080A000F7830700F7830700F7830700F7830700CC
:1080B000F7830700F78307000000000000000000BE
:1080C000F7830700F7830700F7830700F7830700AC
:1080D000B1840700F7830700F78307000000000062
:1080E0000000000000000000000000000000000090
:1080F0000000000000000000000000000000000080
:10810000000000000000000000000000000000006F
:10811000000000000000000000000000000000005F
:10812000000000000000000000000000000000004F
:10813000000000000000000000000000000000003F
:10814000000000000000000000000000000000002F
:10815000000000000000000000000000000000001F
:10816000000000000000000000000000000000000F
:1081700000000000000000000000000000000000FF
:1081800000000000000000000000000000000000EF
:1081900000000000000000000000000000000000DF
:1081A00000000000000000000000000000000000CF
:1081B00000000000000000000000000000000000BF
:1081C00000000000000000000000000000000000AF
:1081D000000000000000000000000000000000009F
:1081E000000000000000000000000000000000008F
:1081F000000000000000000000000000000000007F
:10820000DFF80CD000F042F9004800478D930700DA
:108210004885002080F308888E46104730B450E827
:10822000012F93B2C48923448489A34228BF1B1B16
:108230000489A34202BFBFF32F8F002007E0C3EAE7
:10824000020340E80134002CE9D14FF001000A603C
:1082500030BC704750E8012FC2EA024240E80121D9
:108260000029F7D1704730B450E8022F1FFAA2F36B
:10827000C488A34202BFBFF32F8F00200DE0C48942
:1082800023448489A34228BF1B1BC2EA034340E85E
:108290000234002CE8D14FF001000A6030BC704776
:1082A00050E8022FC2EA224240E802210029F7D119
:1082B0007047034653E8022FD988B2EB324F4FF094
:1082C000000017BF92B241EA014142EA014104E0D5
:1082D0005A68B2EB324F08BF012043E80212002A6D
:1082E000E8D1704730B4044654E8000F0D4644E826
:1082F0000053002BF8D1156030BC704730B40446F1
:1083000054E8000F40EA010544E80053002BF7D180
:10831000156030BC704730B4044654E8000F00EAE2
:10832000010544E80053002BF7D1156030BC7047BD
:1083300030B4044654E8000F80EA010544E80053D5
:10834000002BF7D1156030BC704730B4044654E8B8
:10835000000F00EB010544E80053002BF7D1156036
:1083600030BC704730B4044654E8000FA0EB010560
:1083700044E80053002BF7D1156030BC704770B44F
:1083800004464FF0000054E8006F0D68AE4207BF8E
:1083900044E80023012044E800630E60002B1CBF6A
:1083A0000020F0E770BC704730B4044654E8000F7A
:1083B00088422CBF451A054644E80053002BF5D1EE
:1083C000156030BC704700001EF0040F0CBFEFF3C7
:1083D0000880EFF3098002F01BBD000006488047CB
:1083E00006480047FEE7FEE7FEE7FEE7FEE7FEE79A
:1083F000FEE7FEE7FEE7FEE7B9850700018207001A
:108400000048704710BA070040EA01039B0703D0F9
:1084100009E008C9121F08C0042AFAD203E011F8C3
:10842000013B00F8013B521EF9D27047D2B201E085
:1084300000F8012B491EFBD270470022F6E710B569
:1084400013460A4604461946FFF7F0FF204610BDC2
:10845000421C10F8011B0029FBD1801A704730B56F
:1084600004460020034600E05B1C934203D2E05C1C
:10847000CD5C401BF8D030BD034611F8012B00F84D
:10848000012B002AF9D1184670470000064C074D11
:1084900006E0E06840F0010394E8070098471034D4
:1084A000AC42F6D3FFF7B0FE08BD070028BD0700B9
:1084B0002DE9F0411E4E4FF48271D6F8040130B11F
:1084C0001C48C268521CC260304602F09FFB002567
:1084D0004FF4A07707EB85018AB23046B25812B349
:1084E00089B202F093FB1348103000EB05142046CC
:1084F00003F06EF8104811492246401AC0080421C2
:1085000001EB00400EA102F09DF9616819B120460F
:1085100002F0C8FF07E0A16811B1204602F0C2FFD7
:10852000206800B180476D1C022DD3D3BDE8F081D7
:1085300000400240C057002060BD070038BD070062
:1085400074696D65725F6669726520283078257878
:108550002900000000F0CEB970B50E46144900EBBA
:10856000400001EBC0051446E86A183520B1012827
:108570000FD0022805D113E0284600F0EFF9A04201
:1085800001D2002411E022463146284600F01EFAAE
:108590000BE0284600F0E2F9A042F4D20446F2E7EC
:1085A0003146284600F0E5F90446204670BD00003B
:1085B000BC62002002F0C0BBF0B5B5480023021D2C
:1085C0000178101D01254FF0805406290BD1167833
:1085D000360708D10678C6F30316032E06D0042EFC
:1085E00004D0052E02D0062907D00EE0B4F824638B
:1085F000A84FC6F304263E6002E01678360704D181
:108600000678C6F30316032E02D0062904D00FE025
:10861000A24FA14E7E670EE01678360708D1067885
:10862000C6F30316032E06D0042E04D0052E02D066
:10863000062907D00EE0D4F84462994FC6F34236BB
:108640003E6002E01678360704D10678C6F30316BA
:10865000032E02D0062906D011E0924E376827F08B
:10866000807737600EE01678360708D10678C6F3B3
:108670000316032E06D0042E04D0052E02D00629A0
:108680000AD011E04FF08046C6F80C31C6F8103120
:10869000834E361F336002E01678360704D1067821
:1086A000C6F30316032E02D0062905D00CE07C4F3A
:1086B000032664373E600AE01678360704D1067850
:1086C000C6F30316032E02D006290DD014E0764F10
:1086D00005263E60744E78363560734E083633603A
:1086E0003F263F1D3E6002E01678360704D106782B
:1086F000C6F30316052E02D0062957D062E06B4E52
:1087000036686B4F3E60694E361D36683F1D3E60D1
:10871000664E083636683F1D3E60644E0C3636683D
:108720003F1D3E60614E103636683F1D3E605F4E15
:10873000143636683F1D3E605C4E183636685C4F16
:1087400020373E60594E1C3636683F1D3E60574EFE
:10875000203636683F1D3E60544E243636683F1D35
:108760003E60524E283636683F1D3E604F4E2C36D6
:1087700036683F1D3E604D4E303636684C4F4037B0
:108780003E604A4E343636683F1D3E60474E3836AE
:1087900036683F1D3E60454E3C3636683F1D3E60A4
:1087A000424E403636683F1D3E6002E0167836077E
:1087B00008D10678C6F30316032E06D0042E04D083
:1087C000052E02D0062907D019E0D4F85812394AEC
:1087D00001F04F01116002E0117809070FD1007814
:1087E000C0F30310032803D0042801D0052806D1C4
:1087F00031480168C90702D06FF001010160D4F867
:108800003001062808D1D4F83401062804D12B48B9
:10881000016841F48061016022487438016841F4C4
:1088200070010160BFF34F8FBFF36F8F4FF01021C6
:10883000D1F80002002803DBD1F80402002822DA74
:108840001F4A15601F480468002CFCD01524C1F88D
:1088500000420568002DFCD0C1F8044201680029DF
:10886000FCD0136001680029FCD0BFF34F8F0D4886
:10887000F0380168144A01F4E06111430160BFF36C
:108880004F8F00BFFDE7124910480860F0BD00009F
:10889000E00F00F0403501400DF0ADBA00C00740D8
:1088A0003C050040FCED00E01056004004040010C0
:1088B00020C50040E40E0040000400403C1700408A
:1088C00004E5014000E401400400FA050090D003F3
:1088D00074580020064808B5002101600068009027
:1088E00002F06CF801F08EFE0028FBD108BD0000FC
:1088F0000001014010B5124C02202061606111A0FE
:10890000A06104F17800E0614FF400702062002063
:10891000A06260620BA1A164E06204F51E71E164D3
:108920001021A065C4E91410E06509A1E01DFFF75E
:10893000A3FD08A12046FFF79FFD2020A07110BDD8
:10894000BC6200205465726D696E616C00000000AD
:108950005254540053454747455200000269C168CC
:108960008A4203D88068401A104400E0501A401E22
:1089700070472DE9F047C4681746894606464FF010
:1089800000083069A04201D9051B02E0B168201A35
:108990000D1AB0686D1E001BA84200D80546BD42E6
:1089A00000D33D4670682A4620444946FFF72CFD17
:1089B000B0687F1B2C44A844A944A04200D10024E5
:1089C000F460002FDDD14046BDE8F0872DE9F0418D
:1089D00004468846D4E90207C51BE168606816466C
:1089E0000844B54206D94146FFF70EFDB819E060CC
:1089F000BDE8F0812A464146FFF706FD761B08EBED
:108A0000050132466068FFF7FFFCE660F0E702E030
:108A100008C8121F08C1002AFAD170477047002009
:108A200001E001C1121F002AFBD17047012120285B
:108A300003DA81400548014003E0402802DA20388B
:108A4000814009B10120704700207047FC06FFBD3E
:108A5000800701D00020704701207047C3688B4217
:108A600006D811440069491E814201D8012070478F
:108A7000002070472DE9F05FDFF8B4B05C46DBF80A
:108A80006480DBF8246001F0D3F8216B4718751A75
:108A900028482949401AC108042000EB01408146BA
:108AA00026A101F0CBFE216B4144B94200D1002543
:108AB00008232A46384600F0C5FA07001E481D491B
:108AC0004FF0010AA1EB00004FEAD0010AEB01448C
:108AD00004D0204620A101F0B1FE25E001F0A8F865
:108AE0000022314600F066F90546DBF82820D8461A
:108AF0005846AA4208D148461EA101F09FFEC8E987
:108B0000075AC8F818600FE0064620462B461F4952
:108B100001F09FFE0020306301F0F0FA18B120460A
:108B20001BA101F08BFE03273846BDE8F09F000033
:108B30007C5B002060BD070038BD0700456E746592
:108B400072206E72665F6466755F6170705F636FDE
:108B50006E74696E756500004661696C65642074A9
:108B60006F20636F7079206669726D776172652E10
:108B70000000000053657474696E67206170702096
:108B800061732076616C69640000000014BA07000C
:108B90004661696C656420746F2077726974652022
:108BA000696D61676520636F7079696E67207072A7
:108BB0006F677265737320746F2073657474696E68
:108BC000677320706167652E0000000008B51346CA
:108BD000024600930648074BC01AC008012303EB66
:108BE00000400B4604A101F03CFE02F047F90000F2
:108BF00060BD070038BD070052656365697665642E
:108C00002061206661756C74212069643A20307897
:108C1000253038782C2070633A2030782530387829
:108C20002C20696E666F3A20307825303878000045
:108C3000024606480649401AC008012101EB0040DF
:108C400004A101F0FFFD02F019F9000060BD07006A
:108C500038BD0700526563656976656420616E20E2
:108C60006572726F723A20307825303878210000B2
:108C700030B5EFF3108172B60D4A9468012324B128
:108C80000370002900D162B630BD93604FF0E0233D
:108C9000D3F88051074C25401560C3F88041D3F8C4
:108CA000844154605A17C3F8842100220270E8E717
:108CB000F45C0020FC06FFBD0B498A68002A11D035
:108CC00000280FD1EFF3108072B60B684FF0E0224E
:108CD000C2F800314B68C2F8043100228A600028D3
:108CE00000D162B670470000F45C00202DE9F04727
:108CF000214F0546861C00203870914688464FF06B
:108D0000010A3846FFF7B4FF1C4C2068C8F8000081
:108D1000D4E90001401AA16804F50778081A0EE0AA
:108D20000121404600F027FC00F0E2FA01464046EF
:108D300000F021FCD4E90001401AA168081A401C87
:108D40008642EDD8B9F1000F03D0052065F38910F4
:108D500002E0062065F39F50A2682168114004EBF1
:108D60008101C8602068304420603878FFF7A4FF94
:108D70005046BDE8F08700000C58002058600020E5
:108D800030B482680468531C8360A154D0E9011296
:108D90008A4202D330BC01F0CEB930BC704700002B
:108DA000034803C8814201D1012070470020704769
:108DB00058600020F0B54FF0FF3622B11268D24360
:108DC00000230A4D0DE03246FAE7C45C62400824F5
:108DD000D70700D037462F4087EA5202641EF7D1EA
:108DE0005B1C8B42F1D3D043F0BD00002083B8ED73
:108DF00010B504460068401C07D0204602F01EFA59
:108E00002168814201D1012010BD002010BD000069
:108E1000FEB519490446086808B1401E08601748A5
:108E2000174AD4E90153801AC008042202EB00401B
:108E300022789DB10E6821690296CDE900312B465A
:108E4000012A16D00FA211A101F01EFD61690029AF
:108E500011D0E06803B0BDE8F04008470968009110
:108E6000012A04D007A218A101F0FBFCEEE720A222
:108E7000F9E71FA2E7E7FEBDF457002040BD070059
:108E800038BD07006572617365000000466C617350
:108E900068202573206661696C6564202830782518
:108EA00078293A20616464723D25702C206C656ECF
:108EB0003D307825782062797465732C2070656E5A
:108EC00064696E6720256400466C617368202573B1
:108ED00020737563636573733A20616464723D2522
:108EE000702C2070656E64696E6720256400000038
:108EF000777269746500000010B50021024800F027
:108F000050FB80F3100010BD746200202DE9FC417D
:108F100080461F4615460E4600240D4800F028FBEB
:108F200038B11120BDE8FC8106EB043001F026FECB
:108F3000641CAC42F8D1064800F011FBCDE90057A3
:108F4000334600220221404600F02AF80020E9E7DB
:108F5000005800202DE9F843104D0F4680461E466C
:108F600091466946286800F0CEFA040014D01C210E
:108F7000FFF763FA01202071C4F81490380BC4F88D
:108F80000080C4E902606946286800F0DDFA02F05A
:108F900059F80020BDE8F8830420FBE794B80700E7
:108FA0002DE9F04387B00446DDE90E8980681D464F
:108FB00016460F4600280BD018216846FFF73DFAE9
:108FC00002A88DF8007080E86003A16868468847B1
:108FD00007B0BDE8F08330B50446006887B00D46A1
:108FE000806800281FD018216846FFF726FA0195EF
:108FF000A0680590207910B1012810D107E0012068
:109000008DF8000020690290E068039005E00220DE
:109010008DF80000E0680003029060690490206809
:1090200081686846884707B030BD000001490120CB
:1090300008707047B8570020014901200870704738
:10904000F05700202DE9FC5F0E46074631493248B3
:109050009846081A04214FEAD00A01EB0A40154647
:109060008346BE4207D13B4632462CA101F0F1FBBC
:109070000020BDE8FC9FF01B040B0020009005F6CB
:10908000FF704FEA103900F05FFD4046A04500D266
:109090000446A04639E0C14503D82C46CDF80490DB
:1090A00003E04FEA0834CDF80480002238460199E5
:1090B00000F0DCFD0028DCD158463B46324623A1B7
:1090C000009401F0CEFB601E00F00300221A002382
:1090D00031463846D21C00F07FFE0028C9D10199E4
:1090E0002348A9EB01092D1B016B2744214401638F
:1090F0002644002001F002F8009030B1012101EB7C
:109100000A401CA101F09AFB01E0002DC3D1009898
:10911000AFE7000060BD070038BD07004E6F206359
:109120006F7079206E6565646564207372635F613A
:109130006464723A20307825782C206473745F61FF
:109140006464723A2030782578000000436F7079AB
:10915000696E67203078257820746F203078257804
:109160002C2073697A653A20307825780000000059
:109170007C5B00204661696C656420746F207772A7
:1091800069746520696D61676520636F7079696EC8
:10919000672070726F677265737320746F207365D8
:1091A0007474696E677320706167652E000000003B
:1091B000014941600020704768B8070010B50B49AD
:1091C00041600B4800F0D4F968B901F0C7FD0849C7
:1091D0001C234FF4EE7208740448A1F5EE71001FD1
:1091E000006800F07DF9002010BD000098B807006D
:1091F000EC5E00202DE9FC5F0E008346DDE90C47A4
:10920000C6F1000098469246814600D408460125E2
:1092100003E000BF90FBFAF06D1C5045FADAA84558
:1092200000D9454624B1002E01DB780700D5641E25
:10923000B80702D5B8F1000F0AD0F80708D13CB141
:10924000A54205D220215846641EFFF799FDF6E796
:10925000002E02DA4E462D2102E0780703D52B219D
:109260005846FFF78DFD07F0030002280BD1B8F137
:10927000000F08D13CB1A54205D230215846641EEA
:10928000FFF77EFDF6E7CDE90047434652463146FB
:10929000584602F0DBF9BDE8FC9F02460020126848
:1092A000530713D502F00300012802D002280CD185
:1092B00005E0C2F383100B68801C184404E002230D
:1092C000086803EB925210440860012070470000C8
:1092D00002480068002800D0012070470058002094
:1092E0000248007A002800D001207047EC5E002080
:1092F0002DE9FF410026234800F037F92148001FDF
:10930000074600F032F9204C60680090A56800E044
:1093100000986946284004EB80000C30FFF7BDFF41
:109320000028F5D101AA009901EA050304EB8303A3
:10933000491CDB6842F82030401C00910228F2D31F
:10934000019800F0030001280BD0022810D10198E9
:10935000032101EB90500099BDF80A6001EB9000E9
:1093600005E00198BDF80A60C0F38310084400903E
:10937000384600F0F7F808B10098606004B0304655
:10938000BDE8F081706200205860002010B5002216
:109390004FF48051104600F065FAD8B91248002207
:1093A000C0F5FA2100F05EFAA0B900210F4801F0E3
:1093B000CFFA01F019F90E480E49401AC1080320EE
:1093C00000EB014004460CA101F038FA002000F047
:1093D00015FB08B1FFF72CFC00F04AF920460DA15F
:1093E00001F02CFA002010BD008007004D98070006
:1093F00060BD070038BD0700626F6F74206C6F613D
:10940000646572202D3E20496E73696465206D612C
:10941000696E00004166746572206D61696E0000BE
:109420002DE9F047C5881E1DB6FBF5F78946B6FB4A
:10943000F5F1044605FB176C407916686843DDF8C2
:1094400020A0F718001F874200D9C61A166001E055
:109450002468491E0029FBD1A5EB0C078846B742BA
:1094600016D818E004EB0C00001D09EB0803BAF154
:10947000000F3A4602D00146184600E01946FEF7B2
:10948000C3FF2468F61B4FF0000CB844B54201D965
:10949000374600E02F46002EE4D1BDE8F0870000FB
:1094A00030B5024651B101F071FA0021074C08E0D5
:1094B00034F821301568AB4202D11160002030BD74
:1094C000491C8142F4D3052030BD0000000000009B
:1094D00010B5FEF7EEFE08B1002010BD112010BD42
:1094E00010B531B1B2FBF3F403FB14241CB1092015
:1094F00010BD0E2010BD016000214160816082819D
:10950000C381084610BD70B50C460546FEF786FEC1
:10951000002802D021882868084470BD10B50A8848
:1095200049888A4203D1FEF7BBFE012010BD00200E
:1095300010BD70B50C460546FEF795FE002802D01A
:1095400061882868084470BD10B50A8849888A4235
:1095500003D1FEF77FFE012010BD002010BD0021C9
:1095600000F00FB8002100F012B8012100F01EB881
:10957000012100F011B808B56A46FEF7E6FE009832
:1095800008BD08B56A46FEF7C6FE009808BD08B5D6
:109590006A46FEF7C0FE08BD08B56A46FEF7AEFE95
:1095A00008BD08B56A46FEF79DFE08BD08B56A46C7
:1095B000FEF7A4FE009808BD08B56A46FEF7D2FE85
:1095C000009808BD70B5104E044600253570304631
:1095D000FFF74EFB21686268086890420ED9401E72
:1095E00008600178238AE26801FB0325227A21685A
:1095F000101AC0B20A79824200D208713078FFF79F
:109600005BFB284670BD0000FC57002070B50B4E78
:109610000546002030700C463046FFF729FBE8680D
:10962000298A201AB0FBF1F12A681068431C1360E4
:1096300001703078BDE87040FFF73EBBFC5700205A
:1096400010B530B1017A42680368891AC9B21A604C
:1096500006E00E2010BD03681A68541C1C601170CF
:10966000491EC9B2F7D2006800210171084610BD39
:109670002DE9F041184819494FF48052401AC708A3
:10968000042000EB0745164615A1284601F0DAF83C
:109690004FF0E024D4F8802128461FA104F5C074BF
:1096A00001F0D0F860172060C4F800016060C4F8D1
:1096B000040100F0E1FB28B1012000EB074021A1EB
:1096C00001F0BCF800F09EFF0028FBD13046BDE859
:1096D000F04100F053B8000060BD070038BD07003E
:1096E00052756E6E696E67206E72665F626F6F7420
:1096F0006C6F616465725F6170705F7374617274C6
:10970000207769746820616464726573733A2030ED
:10971000782530387800000044697361626C696EA6
:109720006720696E74657272757074732E204E5660
:1097300049432D3E494345525B305D3A2030782500
:10974000780000004661696C65642072756E6E6910
:109750006E67206E72665F6466755F6D62725F69C8
:1097600072715F666F72776172645F616464726563
:1097700073735F73657428290000000070B5064696
:10978000204888B0C0F5FC21002200F06BF8021ED2
:109790004FF0FF3509D01C481C49401AC008012170
:1097A00001EB00401AA101F04DF8EFF30580D6E976
:1097B0000046C005C00D4FF0000181F3148881F30D
:1097C000108881F3118881F3138813D020221E4959
:1097D0006846FEF719FE203C202269462046069680
:1097E000FEF712FE6FF0060229462046FEF712FD34
:1097F00008B070BD08B0324629462046BDE870402A
:10980000FEF708BD0080070060BD070038BD0700F7
:10981000436F756C64206E6F742070726F74656333
:109820007420626F6F746C6F6164657220616E6426
:109830002073657474696E67732070616765732C3B
:1098400020307825782E000028B807000348D0F88B
:1098500004050349097B00EB0160704700400240AA
:10986000C0570020F0B50A0502D1B0F5FE2F01D98E
:109870000720F0BD134D000B491E124F01222E1D73
:10988000103700EB113407F1040C17E04309C3F162
:10989000000100EB411E02FA0EF106D0012B06D0AA
:1098A000022B06D0032B08D105E0296005E03160CA
:1098B00003E0396001E0CCF80010401CA042E5D97B
:1098C0000020F0BD0006004070B5214821491F4D21
:1098D000401AC608042000EB064004461EA100F012
:1098E000ADFFA868012807D0032000EB064023A1A4
:1098F00000F0A4FF002070BD204627A100F09EFFCD
:10990000FFF7B8F81349124B0200A3EB01014FF027
:1099100001004FEAD10100EB014405D0204621A10E
:10992000AB6800F096FF0DE0284600F095F92A4953
:1099300000200870294800F0E1FB28B1204628A14A
:1099400000F07CFF032070BD012070BDA05B0020F3
:1099500060BD070038BD0700456E746572206E72E9
:10996000665F626F6F746C6F616465725F66775F6C
:109970006163746976617465000000004E6F206653
:1099800069726D7761726520746F206163746976A6
:109990006174652E0000000056616C69642041709E
:1099A0007000000041637469766174696F6E2066AF
:1099B00061696C65642077697468206572726F7282
:1099C000202564202862616E6B20636F64653A20F5
:1099D0003078257829000000F057002039900700E2
:1099E000436F756C64206E6F7420777269746520A4
:1099F00073657474696E67732E0000002DE9F04181
:109A000004461F481F49401AC108042000EB0140CA
:109A100005461DA100F012FF214E0020746000F0E9
:109A200087FA00281DD1FFF74FFF164A144B002775
:109A300001219A1AD20801EB024478B1012802D020
:109A400002280ED10AE0284616A100F0F7FE377072
:109A50001A4800F067FA204619A10DE000F042FA1A
:109A600010B10320BDE8F0813770224800F05AFAA7
:109A7000FFF7FEFD204620A100F0E0FEF1E7000028
:109A800060BD070038BD0700496E206E72665F62D8
:109A90006F6F746C6F616465725F696E69740000EA
:109AA000B8570020526573657474696E6720626FE1
:109AB0006F746C6F616465722E00000085B00700E2
:109AC00053686F756C64206E6576657220636F6D88
:109AD0006520686572653A20416674657220626F20
:109AE0006F746C6F616465725F7265736574282949
:109AF000000000002D90070053686F756C64206EA5
:109B00006576657220636F6D6520686572653A20C1
:109B10004166746572206E72665F626F6F746C6FFF
:109B2000616465725F6170705F737461727428291B
:109B300000000000034A93680A46014698601846F0
:109B400001F038BDC05700202DE9F0411A4E3078A1
:109B500000282ED101F08AF91849194A0127891ADB
:109B6000C908032202EB014500281DD015480468EE
:109B70002846224614A100F065FEA4F54864962C00
:109B800000DA962401F0BCFD2846224615A100F01B
:109B900059FE21492046FFF7CDFF4FF0E0214FF459
:109BA0008030C1F8000103E028461CA100F046FE09
:109BB0003770BDE8F0810000F157002038BD070084
:109BC00038BD07000405014057445420656E6162AA
:109BD0006C6564204352563A2564207469636B7344
:109BE000000000005374617274696E672061207414
:109BF000696D657220282564207469636B73292060
:109C0000666F722066656564696E6720776174634C
:109C100068646F672E0000003DB70700574454206A
:109C20006973206E6F7420656E61626C65640000FC
:109C30004FF44050074A4168914207D18068411E65
:109C4000C1F30B01401A00F6FF7070474FF48050CB
:109C500070470000DBE5B151002101604160816087
:109C600001480163704700007C5B00202DE9F84348
:109C7000134C07460D462068009012481249904642
:109C8000401AC608042000EB06402B463A460FA1B6
:109C900000F0E7FD43462A4639461C4800F044FBE5
:109CA000050009D0022000EB06402A4618A100F06A
:109CB000C9FD2846BDE8F8832068401C2060F8E70D
:109CC000F457002040BD070038BD07006E72665F84
:109CD0006673746F726167655F6572617365286131
:109CE0006464723D307825702C206C656E3D25646F
:109CF000207061676573292C207175657565207505
:109D0000736167653A2025640000000078580020E0
:109D10006E72665F6673746F726167655F657261AC
:109D200073652829206661696C65642077697468A9
:109D3000206572726F7220307825782E0000000046
:109D40000C490D4A10B5891AC908042202EB0142D8
:109D50000028104604D009A100F070FD114903E06D
:109D600011A100F06BFD1A49BDE81040002219480E
:109D700000F0F0BA40BD070038BD0700496E6974B5
:109D800069616C697A696E67206E72665F6673746A
:109D90006F726167655F7364206261636B656E6497
:109DA0002E000000A4B80700496E697469616C69EF
:109DB0007A696E67206E72665F6673746F72616730
:109DC000655F6E766D63206261636B656E642E0005
:109DD00074B80700785800202DE9FC47154C8046E0
:109DE0000F4620681549CDE9002013489946401ACE
:109DF000C6081546042000EB06403B464246104983
:109E000000F038FD2B463A4641460E48CDF800900A
:109E100000F010FB050009D0022000EB06402A46A6
:109E200009A100F00FFD2846BDE8FC872068401C12
:109E30002060F8E7F457002040BD070038BD070058
:109E40005CBA0700785800206E72665F6673746FA4
:109E5000726167655F777269746528292066616938
:109E60006C65642077697468206572726F72203047
:109E70007825782E000000000B480C4970B5401A78
:109E8000C108042000EB01404FF48055044608A1AE
:109E900000F0D4FC68040CA105600025204600F009
:109EA000CDFC284670BD000060BD070038BD07002E
:109EB00072756E6E696E6720697271207461626C72
:109EC00065207365740000004166746572207275C8
:109ED0006E6E696E6720697271207461626C6520B4
:109EE000736574000648074910B5401AC00802217E
:109EF00001EB004004A100F0A1FC002010BD000017
:109F000048BD070038BD07004E6F20616464697466
:109F1000696F6E616C206461746120657261736544
:109F200064000000014901F029B9000000F00700B9
:109F30002DE9F84F04463E483E49401A4FEAD00802
:109F4000042101EB084082463BA100F077FC20464B
:109F5000FFF7F6FE4FF00101020001EB084602D0C8
:109F600030463EA15DE04848FEF742FFDFF81C9115
:109F70000546D9F80000FEF73BFF2E4A2C4B07465A
:109F8000A3EB02024FF002014FEAD2023D4201EB85
:109F9000024418D03C48742183460246042001F054
:109FA00053F95A464FF4BC7B00905946782001F093
:109FB0004BF901460098084205D12046344900F08B
:109FC0003DFC5A4614E055B1504632A100F036FC33
:109FD0004FF4BC722C493248FEF716FA26E06FB1F6
:109FE000032101EB08402F4900F028FC4FF4BC721C
:109FF0002B48D9F80010FEF707FA0BE020462A4953
:10A0000000F01CFC4FF4BC712548FEF716FA2449F9
:10A0100001204860002000F05DF8020006D03046C4
:10A0200022A100F00FFC0320BDE8F88F0020FBE721
:10A0300048BD070038BD070043616C6C696E67203E
:10A040006E72665F6466755F73657474696E67735C
:10A050005F696E697428292E2E2E00006E72665F6D
:10A060006466755F666C6173685F696E69742829E0
:10A07000206661696C656420776974682065727216
:10A080006F723A202578000000F00700F857002092
:10A0900060BB070053657474696E6773204F4B0093
:10A0A0007C5B002004BB0700A0BA070073657474D2
:10A0B000696E67735F7772697465282920666169C4
:10A0C0006C65642077697468206572726F723A20DB
:10A0D0002578000010B50446064801F0AFF80549A0
:10A0E0002246A1F53C730860BDE81040024801F02B
:10A0F000BBB800007C5B002000F0070070B505468F
:10A100000020FFF7E7FF040003D10349284601F0D0
:10A1100035F8204670BD00007C5B00200FB408B508
:10A120000399002904D004AA00926A4600F00FF8AF
:10A1300001B05DF814FB10B582680446002A05D012
:10A14000D4E90403216898470020A06010BD2DE9E0
:10A15000FC4791460C00804676D014F8011B39B1BB
:10A1600025290ED04046FEF70BFE20780028F4D1BA
:10A1700098F80C00002867D04046BDE8FC47FFF780
:10A18000DABF0020012221782B291BD02D2902D0F3
:10A19000302908D102E040F0010001E040F0020067
:10A1A000641C002AEFD100252A290ED02178A1F1C4
:10A1B00030020A2A11D205EB850201EB4205641C2C
:10A1C000303DF1E740F00400EAE7D9F800100B1D3C
:10A1D000C9F800300968641C0D44217800232E2939
:10A1E0000BD114F8011FA1F130020A2A05D203EBAA
:10A1F000830201EB4203303BF3E76C290DD0682961
:10A200000BD0692921D00BDC252918D0582931D051
:10A2100063290ED0642915D117E014F8011FECE76B
:10A22000702969D0732932D075291BD0782909D1BA
:10A2300020E0D9F80000011DC9F80010017840465F
:10A24000FEF79EFD641C90E76CE0D9F800100A1D33
:10A25000C9F800200968CDE900500A224046FEF7FF
:10A26000C9FFEFE7D9F800100A1DC9F800200968F6
:10A270000A2206E0D9F800100A1DC9F80020096872
:10A280001022CDE90050404601F0E0F9DAE7D9F8B4
:10A29000001000270A1DC9F800200E68C00705D16C
:10A2A00012E04046761C7F1CFEF76AFD31780029DB
:10A2B000F7D104E0202140466D1EFEF761FDBD424E
:10A2C000C0D9002DF6D1BDE74EB13046FEF7C0F83B
:10A2D000074604E0202140466D1EFEF751FDBD42B9
:10A2E00006D9002DF6D103E04046761CFEF748FD66
:10A2F00031780029F8D1A5E7D9F80000011DC9F887
:10A300000010056830214046FEF73AFD78214046AE
:10A31000FEF736FD08200021CDE90001034610229A
:10A320002946B0E7BDE8FC872DE9F04104464068C6
:10A3300015461E4602680F466A432046FEF78EFB0E
:10A34000206833462A46D0F810C039462046BDE87A
:10A35000F041604701600B6811461847044801212D
:10A360004174007A08B10020704701207047000056
:10A37000EC5E0020012801D0032808D10449002206
:10A3800001284A7400D00020087400F00DBE704708
:10A39000EC5E002070B50146022801D0032943D1AC
:10A3A000224C207A00283FD0012831D002282FD11A
:10A3B0001F4800230229006802D0032928D119E090
:10A3C000E360027912B1012A22D10BE0D0E90565E0
:10A3D000721B142A00D314222A4482614569AA42BE
:10A3E0000ED015E00169491C0161426991420FD10B
:10A3F000237213E0E268521CE260082A08D9E36085
:10A40000237202290AD00D21FEF7E5FD00F0C2FDFE
:10A41000607C28B1BDE8704000F0A6BC0021F3E7E5
:10A42000BDE8704000F0C0BD70BD0000EC5E0020D3
:10A43000045800202DE9F84304461D4616460F46F1
:10A440000846DDF82080FEF703FB3046FEF700FBF0
:10A450002A4639462046FEF701FBCDF800802068E9
:10A460002B463246D0F80CC039462046E047BDE8BE
:10A47000F883000030B5154A01460020D2F810429A
:10A4800023460AE0DB681D79854205D1401C0A2875
:10A49000F6DB4FF0FF3030BD1B68002BF2D1431CC0
:10A4A000F9D0CB681871D2F8103243B1DB68CC68B0
:10A4B0001B682360D2F81022D268116030BDC2F848
:10A4C0001012C96800220A6030BD000058600020E8
:10A4D0007047FEF73FB8704708B5034A0092402323
:10A4E000024A00F005F808BD2DB107007C6200208B
:10A4F000F0B595B01C4615460F4608461A9E00F06A
:10A5000017FB182109A8FDF798FF0E96CDE909540D
:10A510000023082203A9384600F01FFB0598069087
:10A52000BDF81000ADF81C00BDF81200ADF81E001B
:10A5300000208DF821000398082600F00300012870
:10A5400002D0022818D032E003983346850AC0F3BF
:10A55000C2008DF8200003980FA9C0F38314A20055
:10A56000384600F0FAFA09A8009006AB22460FA977
:10A57000284600F039FA1AE00398840DC0F3C200AF
:10A580008DF82000082C01D2254600E0082533462E
:10A590002A460FA9384600F0E0FA2E44641B09ABA6
:10A5A00006AA29460FA800F07DF9002CEAD138460A
:10A5B00000F0C4FA15B0F0BD0A4A012902EBC00050
:10A5C00007D0022907D0032907D0042907D000208B
:10A5D0007047022070470420704700797047407927
:10A5E0007047000038BD070010B5FFF772FF042167
:10A5F0000348FFF73FFF02490120C968487110BDB9
:10A6000028BD07002DE9F04F8DB0FEF7C9FB18B14A
:10A6100000200DB0BDE8F08F7E4C4FF0000BC4F869
:10A6200018B2BFF34F8F60680290A568D8462840E3
:10A6300004EB80000CE000BFD4F8180270B9216868
:10A640000298814201D86160E2E7284004EB800073
:10A650000C3002A9FEF721FE0028EDD1002003AA4C
:10A66000029901EA050304EB8303491CDB6842F805
:10A670002030401C02910228F2D3039800F003001E
:10A68000022802D001284DD0AAE003985022810D63
:10A690008946B2EB905F00D850210E4666F39F507A
:10A6A000039008315C4800F0FAF9070078D000F018
:10A6B0003FFA4346082203A9384600F056FA0299A9
:10A6C00008F1080A2940681A8000001D864222D934
:10A6D000504D0C3530B1C2B204EB8101301A9046B6
:10A6E0000C3104E02946F2B2002590462846C6B255
:10A6F0005346384600F039FA0AEB080325B13246D2
:10A700002946384600F031FA029909F1030001EBBD
:10A71000900002903BE004EB8101534632463846FC
:10A720000C31EFE70398C0F38310062800D306200E
:10A73000039960F38911C1F38310801C0391810098
:10A74000354800F0ACF907004AD000F0F1F9434673
:10A75000082203A9384600F008FA08F10808002684
:10A760000FE00298434600EA0501401C04EB81011A
:10A770000290042238460C3100F0F7F908F1040881
:10A78000761C0398C0F38310B042EAD847B1D4F8DE
:10A790001052D4F8180278B1384600F0CFF934E0FE
:10A7A0001EE0E8684079012804D12A682846394625
:10A7B00012689047E8680568002DF2D1384600F02D
:10A7C000BDF9164D284685F800B0FEF751FAD4F8C9
:10A7D000180208B9029860602878FEF76DFA14E054
:10A7E000D4F8104205E02168204689688847E0686F
:10A7F0000468002CF7D10A480A49401AC00802210F
:10A8000001EB004008A100F019F8FEF7C9FA80F04A
:10A810000100FEE65860002080BD07000C580020B3
:10A8200060BD070038BD07004261636B656E6473ED
:10A8300020666C75736865640000000000231A468A
:10A8400000F0EABD08B5012300926A4600F0E4FD7D
:10A8500008BD1CB5CDE9002302236A4600F0DCFDEB
:10A860001CBD3EB5069C8DE81C0003236A4600F023
:10A87000D3FD3EBD7FB5DDE908458DE83C000423EE
:10A880006A4600F0C9FD7FBD70B586B00DF1280C99
:10A890009CE870008DE87C0005236A4600F0BCFD52
:10A8A00006B070BD2DE9F0470E4680461C46924624
:10A8B00008293ED894F80C900020207319461046C1
:10A8C00000F01CFB0025B54206D218F805201AA19D
:10A8D0002046FFF723FC03E019A12046FFF71EFCEA
:10A8E0006D1C082DEFD317A12046FFF717FC00259C
:10A8F000B54210D218F80570FDF782FD0068C05D02
:10A9000010F03E0F01D03A4600E02E220EA1204664
:10A91000FFF704FC03E00DA12046FFF7FFFB6D1CD1
:10A92000082DE5D301222146504600F0C9FA84F8EB
:10A930000C90BDE8F0870000202530327800000040
:10A94000202020007C000000256300002000000083
:10A950000B4810B57F218160002101604160C0F883
:10A960001812C0F81412012180F82012054800F0D6
:10A97000E3F8002803D1044800F03AF9002010BDA4
:10A980005860002080BD0700C4B807000248034992
:10A99000401AC0087047000080BD070038BD07009E
:10A9A00013B56846FEF77CFD08B100201CBD0248C7
:10A9B000009950F831001CBD38BD070070B509483A
:10A9C0000125D0F8104280F8205207E0E068457178
:10A9D0002168204649688847E0680468002CF5D162
:10A9E00070BD0000586000202DE9FF4781460C9D96
:10A9F00000200C462F7B2873984616462946184699
:10AA000000F07CFA072E42D2DFE806F004090F16A8
:10AA10001F2A360049462846FFF780FB37E04946A3
:10AA200028462268FFF77AFB31E0D4E90023494643
:10AA30002846FFF773FB2AE0A0680090D4E90023C2
:10AA400049462846FFF76AFB21E0D4E90201CDE937
:10AA50000001D4E9002349462846FFF75FFB16E0D2
:10AA600004F1080007C88DE80700D4E9002349462F
:10AA70002846FFF753FB0AE004F108000FC88DE8F1
:10AA80000F00D4E9002349462846FFF747FB002280
:10AA90002946404600F014FA2F73BDE8FF872DE9E0
:10AAA000F041058A80462D1F4819C01CB0FBF5F007
:10AAB000C6B24046FEF786FD041E19D00020207164
:10AAC00001206071E58000272546761EC4F80080CD
:10AAD0000BE04046FEF776FD60B16179491C61717B
:10AAE000286005467F1CC0F80080B742F1D320469D
:10AAF000BDE8F081204600F002F80020F8E72DE9DB
:10AB0000F041457901466B1E002201E00968521CA4
:10AB10009A42FBD30F680146002605E038460C68D0
:10AB2000FEF774FD2146761CAE42F7D3BDE8F081F6
:10AB30000121001DFEF71FBDFEF782BD10B50446C2
:10AB40000121001DFEF738FD10F0FF0F04D1204653
:10AB5000BDE81040FFF7D3BF10BD1CB50192012224
:10AB6000009201AAFEF75CFC1CBD1CB501920022FC
:10AB7000009201AAFEF754FC1CBD00000949022204
:10AB80000A60BFF36F8FBFF34F8F0A1D1060064836
:10AB90000268002AFCD000200860BFF36F8FBFF36B
:10ABA0004F8F704704E5014000E4014070B50E4C42
:10ABB00001232360BFF36F8FBFF34F8F00230B4D33
:10ABC00008E000BF51F8236040F823602E68002E93
:10ABD000FCD05B1C9342F5D300202060BFF36F8F45
:10ABE000BFF34F8F70BD000004E5014000E4014059
:10ABF0008268002191608268116182685161826877
:10AC0000D1608268516080680160704708B5002299
:10AC100042504058009008BD30B51548ADF5017D53
:10AC20000078002821D04FF4FA7500BFADF800522B
:10AC300080A9684661DF38B1052816D00DF5017D81
:10AC4000BDE83040FDF7F4BF6C460A497DA800F02E
:10AC5000B7F806E0D0E90021204690477DA800F033
:10AC6000C6F87F980028E1D0F4E70DF5017D30BDEE
:10AC70007058002064B9070070B5124C6078B0B10C
:10AC80000120E07000F024FA112812D0022000F018
:10AC900037FA002525702046FDF7EAFF11DF06464A
:10ACA00065702078FEF708F82EB1304670BD082098
:10ACB00070BD002070BDE57000F066FB032000F061
:10ACC0001FFAF6E76C580020F8B5184C607808B108
:10ACD0000820F8BD0120E070002000F0F9F91128EB
:10ACE00017D0002000F00CFA1148002500680090F1
:10ACF00025700E48FDF7BCFF0E49684610DF0600C0
:10AD000009D0002060702078FDF7D6FF2EB13046C4
:10AD1000F8BD0020F8BD0120F4E7E570A57000F053
:10AD20004FFB012000F0ECF9F3E700006C58002025
:10AD3000F8B80700CD8B07000EB50749684600F04C
:10AD40003FF805E0D0E900108847684600F04FF86A
:10AD500002980028F6D10EBD14B9070001484078CA
:10AD6000704700006C5800200548C17819B1407840
:10AD700018B1FFF781BF08207047FFF7A5BF00009B
:10AD80006C5800201FB568464BDF30B1052814D041
:10AD900004B0BDE81040FDF74BBF084901A800F022
:10ADA0000FF806E0D0E900210098904701A800F0D4
:10ADB0001EF803980028E6D0F4E71FBD80B907000D
:10ADC000016009684160AFF3008010B5D0E900214F
:10ADD0005368994201D1002104E0D1E90034A34233
:10ADE00002D01946816010BD08314160F0E78168EA
:10ADF00000290BD0026892680A44826041684B685F
:10AE00009A4203D108314160FFF7DFBF704700006D
:10AE10002DE9F04104461348134BC01A0C21B0FB36
:10AE2000F1F6A0694FF0FF3110F8022C02B9216948
:10AE3000002011E000EB400503EB85052F689742E9
:10AE400009D14F1C02D06F688F4204D194E80F00E3
:10AE5000AD68A84703E0401CB042EBD3012020605E
:10AE6000BDE8F0810000000000000000024800681A
:10AE7000002800D00120704700040140FFF79EFD2C
:10AE8000FFF7C0FB0028FBD10A4E64254FF47A4738
:10AE9000741C3846A0476D1EFAD1BFF34F8F064889
:10AEA0000168064A01F4E06111430160BFF34F8F6E
:10AEB00000BFFDE710B807000CED00E00400FA0544
:10AEC00010B50C46017A052908D0407A38B10848F7
:10AED00008A102682046FFF721F900E01AB106A197
:10AEE0002046FFF71BF92046BDE81040FFF723B9C5
:10AEF0003C580020257300000D0A000038B5C388B7
:10AF00000D46044633B114A0009015A216A12846A0
:10AF1000FFF704F9217A05291CD0607A48B1A0888E
:10AF2000FFF74AFB164951F8202016A12846FFF7E3
:10AF3000F5F8A0880021FFF733FD03461049207A79
:10AF4000143951F8202001B02846BDE830400EA148
:10AF5000FFF7E4B838BD00001B5B306D0000000057
:10AF60001B5B313B33316D0025734C6F677320647D
:10AF7000726F70706564202825642925730D0A009E
:10AF80003C580020257300003C25733E2025733A71
:10AF900020000000034802490068FEF7BFBA000025
:10AFA0000858002094B807002DE9F041224C0025F4
:10AFB000224E207A012730B92148311D0068FEF762
:10AFC000B8FA306038B1022020723168087928B1AF
:10AFD00001281CD114E06560BDE8F081D1E90503CA
:10AFE000C01A142800D31420B7EB900F01D28208A6
:10AFF00000E001220869C9681844194429DF03E008
:10B00000D1E90301084428DF58B1112812D00321E7
:10B010003068FDF7E0FF25726560BDE8F041FFF79D
:10B02000B9BF207C0028D7D1BDE8F0410021022023
:10B03000FFF7B0B92772CFE7EC5E0020045800207C
:10B0400094B8070010B5074C201DFEF791FA0028B0
:10B0500006D1607C002803D1BDE81040FFF7A4BFF3
:10B0600010BD0000EC5E002010B510461A46FDF73A
:10B07000CBF9002010BD10B510461A46FDF7C4F9F3
:10B08000002010BDFFF79AFCFFF7BCFA0028FBD1A7
:10B090000A4E64254FF47A47741C3846A0476D1E4B
:10B0A000FAD1BFF34F8F06480168064A01F4E06108
:10B0B00011430160BFF34F8F00BFFDE720B80700C9
:10B0C0000CED00E00400FA0508467047084670479A
:10B0D0003EB5044609496846FFF772FE08E000BF26
:10B0E000D0E900212046904730B16846FFF77FFE47
:10B0F00002980028F4D13EBD11203EBDFCB80700E7
:10B100003EB5044608496846FFF75AFE07E000BF0F
:10B11000D0E90021204690476846FFF768FE029874
:10B120000028F5D13EBD000008B907002DE9F04127
:10B130001400884618D000250E4F032608EB0501A1
:10B1400022460020FDF708FA0544241A40B9387851
:10B15000002809D008494FF47A408847761E05D068
:10B1600001203870002CE9D1BDE8F0810020387052
:10B17000FAE7000060580020E1B807002DE9F0412F
:10B180000F4606460E480F490F4D401AC4080320CB
:10B1900000EB04400DA12A68FFF754FB164B324622
:10B1A0003946286800F060F8020007D0012000EB63
:10B1B0000440BDE8F04111A1FFF744BBBDE8F081B8
:10B1C00048BD070038BD0700F85700204261636B97
:10B1D000696E672075702073657474696E6773207B
:10B1E0007061676520746F20616464726573732099
:10B1F000307825782E000000045A0020436F756CCB
:10B2000064206E6F7420706572666F726D2062616B
:10B21000636B7570206F6620626F6F746C6F616412
:10B2200065722073657474696E677321204572724C
:10B230006F723A20307825780000000000227421D7
:10B24000001DFDF7B7BD00000B1A1118054A10B517
:10B25000126810441A46FDF702F908B1002010BD2B
:10B26000012010BDF85700202DE9F04715464FF496
:10B27000BC761F46894680463246FDF7F0F81F4AE5
:10B280001F4B0421D21AD20801EB024400282046A9
:10B2900017D01CA1FFF7D2FA204642461EA1FFF7A5
:10B2A000D1FA002201214046FEF7E0FC144A134B7C
:10B2B00001219A1AD20801EB024458B120461EA17E
:10B2C00017E02649FFF7BAFA0DB10020A847002081
:10B2D000BDE8F087324649463846FDF795F82B46DB
:10B2E000324639464046FEF777FD0028F0D020462A
:10B2F0001BA1FFF7A3FA0320EAE7000048BD0700FF
:10B3000038BD070057726974696E6720736574747D
:10B31000696E67732E2E2E0045726173696E672009
:10B320006F6C642073657474696E67732061743A1E
:10B330002030782530387800436F756C64206E6F4C
:10B340007420657261736520746865207365747418
:10B35000696E67732070616765210000CCBB0700D0
:10B36000436F756C64206E6F74207772697465200A
:10B37000746865204446552073657474696E6773FC
:10B38000207061676521000010B51620FDF74EFBA7
:10B3900048B10A4882684FF4800152B1016821F433
:10B3A0008001016010BDBDE8104042F20100FDF7D0
:10B3B0003FBC4FF0E020C0F8801110BDF45C0020CD
:10B3C00010B51620FDF732FBA0B1114890F800042B
:10B3D0004009082811D20121814011F0EC0F0CD056
:10B3E0000C4882684FF480016AB1016841F4800121
:10B3F000016010BD42F2010001E042F20200BDE82E
:10B400001040FDF715BC4FF0E020C0F8001110BD52
:10B4100016E000E0F45C00202DE9F84F204D924644
:10B42000894606469846012269461846AF68FDF7E8
:10B430005DFC58B3009800210446801C09E000BF61
:10B4400000EA07035AF8212005EB8303401C491C3E
:10B45000DA604145F4D34FEA164AFDF74DFD4AEA5A
:10B460000041601C384005EB80003C4005EB840245
:10B47000C160D06866F3C50068F3891069F39F2046
:10B4800020F00300401C20F00400D06095F820025A
:10B4900002E000BFFFF7B6F80028FBD1BDE8F88F47
:10B4A0005860002070B50E4604461A481A492246D4
:10B4B000401AC008042101EB004018A1FFF7C2F9AF
:10B4C0006FF07F418E4200D231461A4DD5F8040507
:10B4D0000844711A4A1E20F07F406160952A02D20A
:10B4E000963196386160247B05EB8401C1F84005F4
:10B4F00011494FF4F86088474FF4A07000EB8401C5
:10B500002846FFF783FB4FF48030A040C5F80403C2
:10B5100070BD000060BD070038BD070074696D652F
:10B52000725F61637469766174652028307825786C
:10B53000290000000040024051B8070070B5184EC5
:10B54000307800282BD1174800680125C0F300404F
:10B5500008B915480560154C4FF480712046FFF777
:10B5600055FB4FF4A0712046FFF750FB4FF4A2713A
:10B570002046FFF74BFB0E49A02081F800040C4940
:10B5800010202039C1F88002C1F800010020C4F861
:10B590000805A56025600220C4F80403357070BD5D
:10B5A000C05700201804004008000040004002403E
:10B5B00024E000E070B515460E460446FFF7BEFFD6
:10B5C000314620462560BDE87040FFF76BBF0000A4
:10B5D00010B5044609480A492246401AC008042109
:10B5E00001EB004007A1FFF72DF9217B4FF48030DC
:10B5F00088400949C1F8080310BD000060BD07007C
:10B6000038BD070074696D65725F73746F702028B0
:10B6100030782578290000000040024010B502482B
:10B62000FDF79DFF002010BD0058002010B514212B
:10B630000448FCF702FF04480068FDF749FF0020BA
:10B6400010BD0000EC5E002094B807002DE9F05F0B
:10B650008346DDE90A4A994690460D460846012789
:10B6600003E000BFB0FBF8F07F1C4045FAD2B945BB
:10B6700000D94F465FEACA7012D18CB15FEA8A7076
:10B6800002D5B9F1000F01D0202607E0302605E0F1
:10B6900031465846641EFDF773FB0CB1A742F7D341
:10B6A0005FF00106B9F1010F02D9A9F1010903E028
:10B6B000B5FBF6F0404502D306FB08F6F2E7DFF8EB
:10B6C0003C9000BFB5FBF6F000FB165519F80010D2
:10B6D0005846FDF755FBB6FBF8F6002EF2D15FEAAF
:10B6E000CA7009D0002C07D0A74205D220215846A5
:10B6F000641EFDF745FBF5E7BDE8F09F56B807006F
:10B7000070B5FFF7B3FB002811D00020084A094BA1
:10B71000094C0121166801FA00F52E4203D004EB12
:10B720008005C5F80036401CC0B20728F2D370BDB2
:10B73000080501403546526E00000140074808499F
:10B7400010B5401AC008032101EB004005A1FFF726
:10B7500075F8BDE81040FFF7D3BF000038BD070003
:10B7600038BD0700496E7465726E616C2066656550
:10B770006400000000207047002070472DE9FC4164
:10B7800080461C4617460E460C48089DFDF7F0FE05
:10B7900010B11120BDE8FC81A20839463046FFF700
:10B7A00005FA0648FDF7DBFE33463A4601214046DE
:10B7B000CDE90045FDF7F4FB0020EBE70058002041
:10B7C0002DE9F84F114D884681461E4617466946B9
:10B7D000DDF828A02868FDF796FE040013D01C2190
:10B7E000FCF72BFE00202071C4F80090C4E9048609
:10B7F000C4E902A769462868FDF7A6FEFFF722FC08
:10B800000020BDE8F88F0420FBE7000094B8070093
:10B810000338FDD870470000000000000000000061
:10B820000338FDD870470000000000000000000051
:10B83000000000000000000000000000FFFFFFFF0C
:10B8400000000000000000010000000000000000F7
:10B850000338FDD870473031323334353637383914
:10B86000414243444546000000100000040000002F
:10B8700001000000B19107001DB6070069B0070084
:10B880007DB707000D8F0700C9B0070075B7070027
:10B89000D1920700005D00200010000004000000AD
:10B8A00001000000BD9107002DB6070077B007002A
:10B8B000C1B70700558F0700CDB0070079B7070063
:10B8C000E1920700C05F00207F0000004060002080
:10B8D000D9A40700D7A40700D1A4070000000000E6
:10B8E0000338FDD87047000094BD07009CBD0700D9
:10B8F000000000000000000001000007E8B8070099
:10B90000F8B807000800000020B9070030B90700A8
:10B910000800000030B9070040B907000800000027
:10B92000B4BD0700BCBD070000000000000000001F
:10B93000A4BD0700B4BD0700000000000000000027
:10B9400000000000000000000000000000000000F7
:10B9500000000000000000000000000000000000E7
:10B96000B857002040B9070060B907000800000080
:10B970009CBD0700A4BD07000000000000000000FF
:10B9800070B9070080B9070008000000004040407F
:10B9900040404040404041414141414040404040A2
:10B9A000404040404040404040404040400502024E
:10B9B000020202020202020202020202022020200D
:10B9C0002020202020202002020202020202909069
:10B9D0009090909010101010101010101010101067
:10B9E00010101010101010100202020202028888BB
:10B9F00088888888080808080808080808080808C7
:10BA000008080808080808080202020240000000AE
:10BA10008DB9070043524320636F6D707574617474
:10BA2000696F6E206661696C656420666F72206361
:10BA30006F70696564206170703A2073726320636F
:10BA400072633A203078253038782C207265732064
:10BA50006372633A20307825303878006E72665F02
:10BA60006673746F726167655F7772697465286168
:10BA70006464723D25702C207372633D25702C2008
:10BA80006C656E3D2564206279746573292C207184
:10BA9000756575652075736167653A2025640000DA
:10BAA000526573657474696E6720626F6F746C6F32
:10BAB000616465722073657474696E67732073695D
:10BAC0006E6365206E6569746865722074686520B0
:10BAD00073657474696E67732070616765206E6F3B
:10BAE0007220746865206261636B75702061726595
:10BAF0002076616C69642028435243206572726F1E
:10BB000072292E00526573746F72696E67207365B7
:10BB10007474696E67732066726F6D206261636B07
:10BB200075702073696E6365207468652073657431
:10BB300074696E6773207061676520636F6E7465EA
:10BB40006E74732061726520696E76616C69642021
:10BB500028435243206572726F72292E0000000044
:10BB6000526573746F72696E672073657474696E61
:10BB700067732066726F6D206261636B75702073EE
:10BB8000696E6365207468652061707020686173F8
:10BB90002074616D706572656420776974682074C3
:10BBA0006865206F66662D6C696D697420706172BE
:10BBB0007473206F66207468652073657474696E91
:10BBC000677320706167652E000000004465737420
:10BBD000696E6174696F6E2073657474696E6773E2
:10BBE00020617265206964656E746963616C20749C
:10BBF0006F20736F757263652C207772697465208E
:10BC00006E6F74206E65656465642E20536B697079
:10BC100070696E672E0000007761726E696E670052
:10BC200064656275670000001B5B313B33306D005B
:10BC30001B5B306D000000001B5B313B33316D003E
:10BC40001B5B313B33326D001B5B313B33336D008B
:10BC50001B5B313B33346D001B5B313B33356D0077
:10BC60001B5B313B33366D001B5B313B33376D0063
:10BC7000696E666F000000006572726F72000000EE
:10BC80006E72665F626F6F746C6F616465725F770E
:10BC9000647400006E72665F6466755F666C6173E3
:10BCA000680000006E72665F6466755F7365747429
:10BCB000696E6773000000006D656D5F6D6E677281
:10BCC000000000006E72665F6673746F7261676574
:10BCD00000000000617070007274745F6C6F675FC9
:10BCE0006261636B656E64006E72665F73646800A8
:10BCF0006E72665F7364685F626C65006E72665F29
:10BD00007364685F736F6300BCBD0700B8570020A1
:10BD1000D40000000E8A070090BE07008C58002057
:10BD2000BC2C00001E8A0700D0B8070000000000ED
:10BD3000D8BC07006458002080BC07000000040441
:10BD400094BC070000000404A4BC07000000040425
:10BD5000B8BC070000000000C4BC070000000404D9
:10BD6000D4BC070000000404E8BC07000000030383
:10BD7000F0BC070000000303FCBC07000000030345
:10BD8000185800200D58002015580020005F002092
:10BD9000180000005DA307000000000095A3070045
:10BDA0000000000019AC07000000000085AD07008E
:10BDB0000000000075A30700000000000000000064
:10BDC0000000000000000000D0570020E0570020D5
:10BDD0000000000000000000000000000000000063
:10BDE0000000000000000000000000000000000053
:10BDF00001000000000000000000000000E007005B
:10BE00000000000000000000000000000000000032
:10BE10000000000000000000000000000000000022
:10BE20000000000000000000000000000000000012
:10BE300078BC070018BC070070BC070020BC0700D6
:10BE400030BC070028BC070038BC070040BC070016
:10BE500048BC070050BC070058BC070060BC070086
:10BE600068BC07000000000000000000FF000000A8
:10BE700000000000000000000090D003000000005F
:10BE800000000000118E07000060020000000800A2
:020000041000EA
:041014000080070051
:020000041000EA
:0410180000D00700FD
:04000005000782016D
:00000001FF
